:200000000C9416010C948F0A0C94BC0A0C947D050C947D050C947D050C943E010C943E0166
:200020000C943E010C943E010C943E010C943E010C943E010C943E010C943E010C943E01C8
:200040000C9492090C943E010C94EF0C0C94210D0C943E010C943E010C943E010C943E01A1
:200060000C943E010C943E01BD01AF019A0189017A016D01670157014B013F012E011E01AC
:200080000D010001ED00C800AE00A1008E00456E746572696E67206D61696E20636F646503
:2000A0000053797374656D20526561647900456E746572696E672070726F6772616D6D697C
:2000C0006E67204D6F646500456E746572206461746120746F20676F20746F2050726F673A
:2000E00072616D6D696E67206D6F6465004D6573736167696E67204E756D626572203A00CF
:2001000048616E67696E67207570203A0043616C6C696E67204E756D6265723A2000456E74
:200120007465722070686F6E65204E4F3A002A20666F72205920262023666F72204E0043B8
:200140006F6E6669726D65642E2E0043616E63656C6C65642E2E00496E76616C69642043EE
:200160006F6D6D616E6400526561647900496E697469616C697A696E6700507265737320F6
:200180002320746F20454E44005072657373202A20746F205354415254004D6F64696679D2
:2001A0002070686F6E65204E756D62657220004D6F6469667920417564696F2000456E749B
:2001C000657220436F6D6D616E64000000000800020100000304070000000000000000014F
:2001E000020408102040800102040810200102040810200404040404040404020202020259
:20020000020303030303030000000023002600290000000000250028002B000000000024BC
:200220000027002A0000CA02510DE50211241FBECFEFD8E0DEBFCDBF12E0A0E0B1E0E0E7E1
:20024000FFE102C005900D92A032B107D9F724E0A0E2B2E001C01D92AE36B207E1F712E07F
:20026000CAE2D2E004C02297FE010E945D0FC632D107C9F70E94950D0C94AB0F0C940000C8
:2002800081E090E090936B0280936A0261E089E00E944B0B61E08AE00C944B0B10926B022C
:2002A00010926A0260E089E00E944B0B60E08AE00C944B0BE82FF0E0EE0FFF1FE859FF4F5E
:2002C0006591749182E492E00E947F0F62E472E081ED93E00C94EF0DCF93DF93109221026D
:2002E0009DE0899FE00111242A96809121028D3078F490E0FC01EE5DFD4F60818C0F9D1FEA
:200300000E949D0F809121028F5F80932102EDCFDF91CF91089580E0E82FF0E0EE5DFD4F30
:2003200010828F5F8F30C0F3809321020895FF920F931F93CF93DF93C82F0E948B01109278
:2003400021028DE0C89FE00111242A96F09021028CE08F1578F00F2D10E0CE01800F911F7B
:200360000E94950FF801EE5DFD4F8083F394F0922102ECCFDF91CF911F910F91FF90089571
:2003800080E0E82FF0E0EE5CFD4F10828F5F8F30C0F38093210208950E9497018CE00E9473
:2003A0005A0162E272E081ED93E00E94EF0D62E272E086E792E00C945B080E9497018EE0AD
:2003C0000E945A0160E071E086E792E00E94D70762E272E086E792E00E94D40786E792E05F
:2003E0000C94190886E792E00C944F08CF93C82FE0917602F09177020284F385E02D86E7B2
:2004000092E009950E94F20160ED77E080E090E00E940B0A8C2F0E94DD0168E873E180E0CD
:2004200090E00E940B0A8C2F0E94CC0160E177E280E090E00E940B0A109220028091200253
:20044000833088F460E08CE692E00E94ED086AEF70E080E090E00E940B0A809120028F5F61
:2004600080932002EBCF60ED77E080E090E00E940B0A0E94F20160E177E280E090E00E94C1
:200480000B0AE0917602F09177020284F385E02D86E792E0CF910994CF936AE371E081ED0F
:2004A00093E00E94E20D4AE050E062E081ED93E00E94DB0E62E571E081ED93E00E94E20D26
:2004C0004AE050E061E081ED93E00E94DB0E6BE671E081ED93E00E94E20D60916A027091A3
:2004E0006B024AE050E081ED93E00E94B60E80916A0290916B020197B1F561E089E00E9459
:200500004B0B61E08AE00E944B0B65E771E081ED93E00E94E20D4AE050E060E081ED93E058
:200520000E94DB0EC0E065E871E081ED93E00E94E20D4AE050E06C2F81ED93E00E94DB0E1F
:200540008C2F0E94F60168E873E180E090E00E940B0ACF5FC23039F782E090E090936B026A
:2005600080936A0215C080916A0290916B02892B79F460E089E00E944B0B60E08AE00E940E
:200580004B0B68EE73E080E090E0CF910C940B0ACF910895CF92EF920F9346E050E065E05B
:2005A00070E086E792E00E940E0793E1C92E22E1E22E01E12FE040E16EE08CE692E00E94F1
:2005C0009C080F91EF90CF90089588E991E0909377028093760286E792E00C94F705CF9376
:2005E00081ED93E00E94AA0B892BD1F36AE070E080E090E00E940B0A81ED93E00E94C30BD9
:20060000C82F682F81ED93E00E94010E8C2FCF910895CF93C82F81E00E945A014AE050E0F1
:200620006C2F81ED93E00E94DB0E6C2F8CE692E00E94ED0883E00E945A0184E00E945A01DC
:200640000E94EF028A32B1F46C2F8CE692E00E94440984E00E945A0181ED93E00E94060C42
:200660000E94EF028332E1F78CE692E00E94900989E001C088E0CF910C945A01CF93C82FF5
:2006800082E00E945A014AE050E06C2F81ED93E00E94DB0E8C2F0E94970162E272E081EDA1
:2006A00093E00E94EF0D8BE00E945A010E948B0181ED93E00E94060C81ED93E00E94AA0BC6
:2006C000892BD1F364E670E080E090E00E940B0A10922102809121028F3030F481ED93E0C4
:2006E0000E94AA0B892B91F462E272E081ED93E00E94EF0D8AE00E945A010E94EF028A329F
:20070000B1F48C2F0E946C0189E012C081ED93E00E94C30B833241F390912102E92FF0E0C9
:20072000EE5DFD4F80839F5F90932102D3CF88E00E945A018C2F0E94970162E272E081EDDB
:2007400093E0CF910C94EF0DCF93DF9381ED93E00E94060C0E94C00181ED93E00E94AA0B26
:20076000892BD1F364E670E080E090E00E940B0A0E948B0110922102809121028F3030F4D6
:2007800081ED93E00E94AA0B892B81F4809122028F7D8134E1F481E00E945A0183E292E0F8
:2007A0000E94610FDF91CF910C94090381ED93E00E94C30B8A3251F390912102E92FF0E02E
:2007C000EE5DFD4F80839F5F90932102D5CF8234A9F483E292E00E94610FEC014AE050E014
:2007E000BC0181ED93E00E94B60ECD2B41F58DE00E945A01DF91CF910C94F201833441F40E
:2008000083E292E00E94610FDF91CF910C94CC018D3459F482E00E945A0183E292E00E94CC
:20082000610FDF91CF910C943E03833541F483E292E00E94610FDF91CF910C94DD0187E00C
:20084000DF91CF910C945A0181ED93E00E94060C80E00E945A010E94A40368EE73E080E089
:2008600090E00E940B0AF0CF26E040E855E260E070E081ED93E00E948D0C81E10E945A0122
:2008800040E855E260E070E086E792E00E94800661E086E792E00E9446078FE00E945A01E7
:2008A00086E792E00E941C0781ED93E00E94AA0B892B29F080E10E945A010E94240482E104
:2008C0000E945A0161E089E00E94120B61E08AE00E94120B60E089E00E944B0B60E08AE0FD
:2008E0000E944B0B60E082E00E94120B60E083E00E94120B61E082E00E944B0B61E083E0FE
:200900000E944B0B43E050E060E471E080E00E946F0A43E050E06EE471E081E00E946F0A0A
:2009200061E08DE00E94120B61E08DE00C944B0B2091C0033091C10328173907B9F4909160
:200940007E0380917F03981789F0E0917E03F0E0E058FC4F808120917E0330E02F5F3F4FB7
:200960002F73332720937E0390E008958FEF9FEF08951F93CF93DF93DC015C968D919C91F1
:200980005D97009749F481E090E013969C938E93129780E090E03BC05196ED91FC91529776
:2009A00050962C915097322F30951FB75E964C915E9741FB772770F941FD6095F894408128
:2009C000772311F0422B01C043234083EC012197F1F748E0508160FF02C0522B01C05323CA
:2009E0005083EC012197F1F76695415099F78081772311F0832301C0822B80831FBF5C96F8
:200A00008D919C915D970197F1F781E090E0DF91CF911F91089508952091C0033091C10393
:200A20002817390781F490917E0380917F03981751F0E0917E03F0E0E058FC4F8081992797
:200A400087FD909508958FEF9FEF08952091C0033091C1032817390771F480917F03209186
:200A60007E0390E0805C9F4F821B910960E470E00E94F20E089580E090E00895E091C00310
:200A8000F091C103E817F90769F4A389B4899C918589809589238C931092C1031092C00366
:200AA00081E0089580E00895CF93DF93EC018A8D9B8D892BF1F08091C0039091C1038C174A
:200AC0009D07B9F0009711F00E943E058E8D8E7F8E8F10927F0310927E03D093C103C09346
:200AE000C003EB89FC8980819D89892B808381E001C080E0DF91CF9108951F920F920FB656
:200B00000F9211242F933F934F935F936F937F938F939F93AF93BF93EF93FF93E091C00353
:200B2000F091C103309709F451C0868DA685B785958581FF04C08C91892329F447C08C91B9
:200B4000892309F043C0A389B4899C918589809589238C93868997890197F1F7208D318D4F
:200B6000A685B785758558E040E0C9010197F1F7842F90E095958795482F6C91672309F012
:200B80004068515091F7868D81FD409580917F0390E001968F73992720917E03281749F018
:200BA000A0917F03B0E0A058BC4F4C9380937F0303C0868D8160868F828D938D0197F1F700
:200BC000A389B4898C919589892B8C93FF91EF91BF91AF919F918F917F916F915F914F91CE
:200BE0003F912F910F900FBE0F901F90189528EA31E0FC01318320830C943E051F93CF9390
:200C0000DF93EC01162F6E8D6695617081E06827812F0E944B0B61E0812F0E94120B812F71
:200C200090E0FC01E152FE4FE491E88BFC01ED50FE4FE491F0E0EE0FFF1FEF5EFD4F859149
:200C400094919A8B898BDF91CF911F9108951F93CF93DF93EC01162F60E0812F0E94120BB2
:200C60008E8D81FD04C061E0812F0E944B0B1C87812F90E0FC01E152FE4FE491ED87FC0108
:200C8000ED50FE4FE491F0E0EE0FFF1FE95FFD4F859194919F878E87DF91CF911F91089543
:200CA000FF920F931F93CF93DF93EC01F62E522F1B821A8208EE13E020E030E00C831D8388
:200CC0002E833F8388EA91E0998388831F8A1E8A198E188E1B8E1A8E1D8E1C8E8E8D8E7F2B
:200CE00050FB81F98E8F642FCE010E94FE056F2DCE01DF91CF911F910F91FF900C94270624
:200D0000CF93DF93EC019A01AB011B8E1A8E198E188E1F8A1E8A60E079E08DE390E00E94C1
:200D2000280FC9012430310520F0B9016350710902C061E070E07D8F6C8FEC85E63108F057
:200D400068C0B901769567956431710518F06351710902C061E070E07F8B6E8B069718F06E
:200D6000C901059702C081E090E0998F888FC901880F991F820F931F969587959695879551
:200D80008D30910510F00C9702C081E090E09B8F8A8F20916800E83050F091E0EE3008F48B
:200DA00090E081E001C0880F9A95EAF701C084E0822B809368002C85283038F02E3040F0EE
:200DC000263148F48CE690E008C08DE690E005C08BE690E002C080E090E09C8B8B8B283026
:200DE00030F481E001C0880F2A95EAF70DC0822F90E02E3010F4089701C00E9791E001C0EF
:200E0000990F8A95EAF7892F8D8B8C8D9D8D0197F1F7CE01DF91CF910C945405CF93DF932B
:200E2000EC0120E00E94500688E991E0998388831F8EDF91CF9108950F931F93CF93DF9382
:200E40008C01C0E1D0E02197F801878D209779F0882331F064EB71E081ED93E00E94E20DF1
:200E600068EE73E080E090E00E940B0AECCF882341F081ED93E0DF91CF911F910F910C940A
:200E8000EB0DDF91CF911F910F910895FC01678F0895BF92CF92DF92EF92FF920F931F9384
:200EA000CF93DF93EC018C010C5F1E4FE881F9810480F581E02DCE010995009709F46AC0F7
:200EC000E881F9810680F781E02DCE010995B82E2AE0821701F18091C2039091C3038536C4
:200EE0009105CCF40E94DC09F801C080D180E280F380F8E8CF0EF3E1DF1EE11CF11CC61642
:200F0000D706E806F90648F58091C2039091C3031816190614F50E94DC09F8016083718360
:200F2000828393838091C2039091C3038C0F9D1FFC01E056FF4F10821092C3031092C203A0
:200F40008F8D882339F0BE0160567F4F81ED93E00E94EF0D81E090E01DC0FDE0BF1609F482
:200F6000A5CF2091C2033091C303A9014F5F5F4F5093C3034093C2032C0F3D1FF901E056F2
:200F8000FF4FB0820E94DC09F80160837183828393838CCFDF91CF911F910F91FF90EF90D6
:200FA000DF90CF90BF9008958E960C94860FCC960C94860F6AE10E94E40D81ED93E00C9428
:200FC000EB0D0F931F93CF93DF93EC0162EC71E00E94EF0D68EC70E080E090E00E940B0A9C
:200FE000CE010E9449076CEC71E0CE010E94E20D62E2CE010E94E40D8E01025D1F4FB8016C
:2010000081ED93E00E94E20DB801CE010E94E20D62E2CE010E94010E64EF71E080E090E00D
:201020000E940B0ACE01DF91CF911F910F910C9449070F931F93CF93DF93EC018F8D88233E
:2010400039F0BE01625D7F4F81ED93E00E94EF0D8F8D8E01045C1F4F882329F0B80181ED38
:2010600093E00E94EF0DCE010E94E107B80181ED93E00E94E20DB801CE010E94E20DCE01F3
:201080000E94DA0764EF71E080E090E00E940B0ACE01DF91CF911F910F910C944907CF9361
:2010A000DF93EC016DEE71E00E94EF0DCE01DF91CF910C9449070F931F93CF93DF93EC01E3
:2010C0008C01025D1F4FC8010E94860F8F8D882329F0B80181ED93E00E94EF0D61EF71E0FD
:2010E000CE010E94E20DB801CE010E94E20D65EF71E0CE010E94EF0DCE01DF91CF911F9116
:201100000F910C944907CF93DF93EC0161E089810E944B0B61E08A810E944B0B61E08B81AA
:201120000E944B0B61E08C810E944B0B61E08D81DF91CF910C944B0BCF92EF920F93CF9376
:20114000DF93EC01862F688349832A830B83EC82CD8260E00E94120B61E088810E944B0B8B
:2011600061E089810E94120B61E08A810E94120B61E08B810E94120B61E08C810E94120B41
:2011800061E08D810E94120BCE01DF91CF910F91EF90CF900C948308CF93DF93EC016EE1E9
:2011A00070E080E090E00E940B0A88810E94810B21E030E0813011F020E030E0C901DF9114
:2011C000CF910895CF93DF93EC01CE010E94CC08892BD9F3DF91CF9108951F93CF93DF9399
:2011E000EC01162F61E089810E944B0BCE010E94E2081130F9F088F0123049F11330D9F5F0
:2012000061E08D810E944B0B6EE170E080E090E00E940B0A60E08D8126C061E08A810E943F
:201220004B0B6EE170E080E090E00E940B0A60E08A8119C061E08B810E944B0B6EE170E02A
:2012400080E090E00E940B0A60E08B810CC061E08C810E944B0B6EE170E080E090E00E9498
:201260000B0A60E08C810E944B0B6EE170E080E090E00E940B0ACE010E948308CE01DF91B3
:20128000CF911F910C94E2081F93CF93DF93EC01162F60E089810E944B0B1130F9F088F018
:2012A000123049F11330C1F561E08D810E944B0B6EE170E080E090E00E940B0A60E08D81FE
:2012C00026C061E08A810E944B0B6EE170E080E090E00E940B0A60E08A8119C061E08B814D
:2012E0000E944B0B6EE170E080E090E00E940B0A60E08B810CC061E08C810E944B0B6EE123
:2013000070E080E090E00E940B0A60E08C81DF91CF911F910C944B0BDF91CF911F91089516
:201320000C9483081F920F920FB60F9211242F933F938F939F93AF93BF938091C50390911F
:20134000C603A091C703B091C8033091C40323E0230F2D3720F40196A11DB11D05C026E892
:20136000230F0296A11DB11D2093C4038093C5039093C603A093C703B093C8038091C903EE
:201380009091CA03A091CB03B091CC030196A11DB11D8093C9039093CA03A093CB03B0931A
:2013A000CC03BF91AF919F918F913F912F910F900FBE0F901F9018952FB7F8946091C5035C
:2013C0007091C6038091C7039091C8032FBF08953FB7F8948091C9039091CA03A091CB03A5
:2013E000B091CC0326B5A89B05C02F3F19F00196A11DB11D3FBF6627782F892F9A2F620F3C
:20140000711D811D911D42E0660F771F881F991F4A95D1F70895CF92DF92EF92FF92CF93DC
:20142000DF936B017C010E94E809EB01C114D104E104F10489F00E946E0A0E94E8096C1BA1
:201440007D0B683E734090F381E0C81AD108E108F108C851DC4FEACFDF91CF91FF90EF904F
:20146000DF90CF900895789484B5826084BD84B5816084BD85B5826085BD85B5816085BD83
:20148000EEE6F0E0808181608083E1E8F0E01082808182608083808181608083E0E8F0E035
:2014A000808181608083E1EBF0E0808184608083E0EBF0E0808181608083EAE7F0E08081A1
:2014C000846080838081826080838081816080838081806880831092C1000895089582301F
:2014E000E8F4E82FF0E0EE0FFF1FE353FC4F71836083813041F0809169008C7F842B80938D
:201500006900E89A089580916900440F551F440F551F837F842B80936900E99A08951F923D
:201520000F920FB60F9211242F933F934F935F936F937F938F939F93AF93BF93EF93FF93F7
:201540008091CD039091CE03892B29F0E091CD03F091CE030995FF91EF91BF91AF919F91EA
:201560008F917F916F915F914F913F912F910F900FBE0F901F9018951F920F920FB60F92BC
:2015800011242F933F934F935F936F937F938F939F93AF93BF93EF93FF938091CF0390919A
:2015A000D003892B29F0E091CF03F091D0030995FF91EF91BF91AF919F918F917F916F9156
:2015C0005F914F913F912F910F900FBE0F901F901895833081F028F4813099F08230A1F087
:2015E00008958730A9F08830B9F08430D1F4809180008F7D03C0809180008F77809380009A
:20160000089584B58F7702C084B58F7D84BD08958091B0008F7703C08091B0008F7D80939F
:20162000B0000895CF93DF9390E0FC01E152FE4F2491FC01ED50FE4F8491882349F190E0F6
:20164000880F991FFC01E55EFD4FA591B4918F5E9D4FFC01C591D4919FB7611108C0F89487
:201660008C91209582238C93888182230AC0623051F4F8948C91322F309583238C938881E8
:20168000822B888304C0F8948C91822B8C939FBFDF91CF9108950F931F93CF93DF931F92B5
:2016A000CDB7DEB7282F30E0F901E553FE4F8491F901E152FE4F1491F901ED50FE4F0491DE
:2016C0000023C9F0882321F069830E94E90A6981E02FF0E0EE0FFF1FEF5EFD4FA591B491F9
:2016E0009FB7F8948C91611103C01095812301C0812B8C939FBF0F90DF91CF911F910F91C4
:201700000895CF93DF93282F30E0F901E553FE4F8491F901E152FE4FD491F901ED50FE4FFA
:20172000C491CC2391F081110E94E90AEC2FF0E0EE0FFF1FE95FFD4FA591B4912C912D239B
:2017400081E090E021F480E002C080E090E0DF91CF910895FC01818D228D90E0805C9F4F50
:20176000821B91098F7399270895FC01918D828D981731F0828DE80FF11D858D90E00895A6
:201780008FEF9FEF0895FC01918D828D981761F0828DDF01A80FB11D5D968C91928D9F5FD5
:2017A0009F73928F90E008958FEF9FEF089587E49DE0892B49F080E090E0892B29F00E942C
:2017C000470D81110C9400000895FC01848DDF01A80FB11DA35ABF4F2C91848D90E0019693
:2017E0008F739927848FA689B7892C93A089B1898C9180648C93938D848D981306C0028837
:20180000F389E02D80818F7D80830895CF93DF93EC01888D8823C9F0EA89FB89808185FDDE
:2018200005C0A889B9898C9186FD0FC00FB607FCF5CF808185FFF2CFA889B9898C9185FF1B
:20184000EDCFCE010E94E50BE7CFDF91CF910895CF92DF92FF920F931F93CF93DF931F920C
:20186000CDB7DEB76C0181E0D60158968C9358975B969C915B975C968C915C97981307C02A
:201880005096ED91FC915197808185FD2EC0F601038D10E00F5F1F4F0F731127F02EF601DC
:2018A000848DF81211C00FB607FCF9CFD6015096ED91FC915197808185FFF1CFC601698304
:2018C0000E94E50B6981EBCF838DE80FF11DE35AFF4F6083D6015B960C935B975296ED9190
:2018E000FC915397808180620CC0D6015696ED91FC91579760835096ED91FC915197808149
:201900008064808381E090E00F90DF91CF911F910F91FF90DF90CF900895BF92CF92DF9233
:20192000EF92FF92CF93DF93EC016A017B01B22EE889F98982E08083411581EE580761052B
:201940007105A1F060E079E08DE390E0A70196010E94060F215031094109510956954795FB
:2019600037952795211580E1380798F0E889F989108260E874E88EE190E0A70196010E9498
:20198000060F21503109410951095695479537952795EC85FD853083EE85FF852083188EAE
:2019A000EC89FD89B082EA89FB89808180618083EA89FB89808188608083EA89FB89808143
:2019C00080688083EA89FB8980818F7D8083DF91CF91FF90EF90DF90CF90BF9008951F92CC
:2019E0000F920FB60F9211242F938F939F93EF93FF93E091E103F091E2038081E091E7036A
:201A0000F091E80382FD12C090818091EA038F5F8F732091EB03821751F0E091EA03F0E063
:201A2000EF52FC4F958F8093EA0301C08081FF91EF919F918F912F910F900FBE0F901F905A
:201A400018951F920F920FB60F9211242F933F934F935F936F937F938F939F93AF93BF9388
:201A6000EF93FF9381ED93E00E94E50BFF91EF91BF91AF919F918F917F916F915F914F910F
:201A80003F912F910F900FBE0F901F90189581ED93E00E94AA0B21E0892B09F420E0822FB4
:201AA00008951092D4031092D30388EE93E0A0E0B0E08093D5039093D603A093D703B09368
:201AC000D80385E092E09093D2038093D10385EC90E09093DE038093DD0384EC90E090939A
:201AE000E0038093DF0380EC90E09093E2038093E10381EC90E09093E4038093E30382ECE5
:201B000090E09093E6038093E50386EC90E09093E8038093E7031092EA031092EB031092A0
:201B2000EC031092ED03089508950E94330A0E94940D0E943404C7EDDBE00E944C022097D8
:201B4000E1F30E94D70BF9CFCF92DF92EF92FF920F931F93CF93DF936C017A01EB01E60E91
:201B6000F71E00E010E0CE15DF0561F06991D601ED91FC910190F081E02DC6010995080F01
:201B8000191FF1CFC801DF91CF911F910F91FF90EF90DF90CF9008956115710581F0DB01B2
:201BA0000D900020E9F7AD0141505109461B570BDC01ED91FC910280F381E02D099480E044
:201BC00090E008950C94CC0DDC01ED91FC910190F081E02D099461E172E00C94CC0D0F933C
:201BE0001F93CF93DF93EC010E94CC0D8C01CE010E94EB0D800F911FDF91CF911F910F91A2
:201C000008950F931F93CF93DF93EC010E94E40D8C01CE010E94EB0D800F911FDF91CF917A
:201C20001F910F9108958F929F92AF92BF92CF92DF92EF92FF920F931F93CF93DF93CDB743
:201C4000DEB7A1970FB6F894DEBF0FBECDBF7C01C42EE52FCB01D22E19A221E02D1510F023
:201C60002AE0D22E8E010F5D1F4F8D2C912CA12CB12C6C2D7E2FA50194010E94060F8C2DE0
:201C8000D29E80191124015011098A3014F4805D01C0895CF8018083211531054105510552
:201CA00021F0C22EE32FCA01E4CFB801C7010E94CC0DA1960FB6F894DEBF0FBECDBFDF91A9
:201CC000CF911F910F91FF90EF90DF90CF90BF90AF909F908F900895CF92DF92EF92FF921B
:201CE0000F931F93CF93DF93EC016A017B012115310579F4E881F9810190F081E02D642F8A
:201D0000DF91CF911F910F91FF90EF90DF90CF9009942A303105E9F477FF1AC06DE20E947C
:201D2000E40D8C0144275527BA014C195D096E097F092AE0CE010E94130E800F911FDF916E
:201D4000CF911F910F91FF90EF90DF90CF9008952AE0B701A601CE01DF91CF911F910F9102
:201D6000FF90EF90DF90CF900C94130E0F931F93CF93DF93EC019A01AB01662757FD609594
:201D8000762F0E946C0E8C01CE010E94EB0D800F911FDF91CF911F910F9108952115310524
:201DA00041F4DC01ED91FC910190F081E02D642F09940C94130E0F931F93CF93DF93EC01F1
:201DC0009A01462F50E060E070E00E94CE0E8C01CE010E94EB0D800F911FDF91CF911F9100
:201DE0000F91089597FB072E16F4009407D077FD09D00E94470F07FC05D03EF490958195E0
:201E00009F4F0895709561957F4F0895A1E21A2EAA1BBB1BFD010DC0AA1FBB1FEE1FFF1FD2
:201E2000A217B307E407F50720F0A21BB30BE40BF50B661F771F881F991F1A9469F7609551
:201E40007095809590959B01AC01BD01CF010895052E97FB1EF400940E943F0F57FD07D049
:201E60000E94060F07FC03D04EF40C943F0F50954095309521953F4F4F4F5F4F08959095D4
:201E80008095709561957F4F8F4F9F4F0895AA1BBB1B51E107C0AA1FBB1FA617B70710F049
:201EA000A61BB70B881F991F5A95A9F780959095BC01CD010895EE0FFF1F0590F491E02D0D
:201EC0000994FC0188279927E89421912032E9F3293010F02E30C8F32B3241F02D3239F411
:201EE000689404C00E948D0F820F911D219120532A30C0F31EF4909581959F4F0895FB019F
:201F0000DC0105900D920020E1F70895FB01DC0101900D920020E1F708957AE0979F902D30
:201F2000879F802D910D11240895F999FECF92BD81BDF89A992780B50895262FF999FECF9A
:201F40001FBA92BD81BD20BD0FB6F894FA9AF99A0FBE0196089512E0CAE2D2E004C0FE01B2
:201F60000E945D0F2296CC32D107C9F7F894FFCF54686965662068617320656E74657265BC
:201F8000642074686520686F7573652C20706C656173652074616B6520696D6D65646961B7
:201FA000746520616374696F6E0056616C7565206F66207573657220636F756E7420697394
:201FC000200056616C7565206F6620616C657274206379636C65206973200076616C75654E
:201FE0002069732000496E20616C657274206379636C652000416C657274696E6720757348
:202000006572200000000000B904A40D260598040C050B0500000000B904A40D260598043E
:202020000C050B052E0041542B4346554E3D312C310041542B434D47463D310041542B434C
:202040004D47533D0041542B434D47443D312C340041542B43504153004154410041544819
:2020600000415444003B004154443E22534D22200000000000280CA40DAA0BC30BB50B0603
:202080000C0D0A006E616E00696E66006F766600FFFFFFFFFFFFFFFFFFFFFFFFFFFFFFFF68
:2020A000FFFFFFFFFFFFFFFFFFFFFFFFFFFFFFFFFFFFFFFFFFFFFFFFFFFFFFFFFFFFFFFF40
:2020C000FFFFFFFFFFFFFFFFFFFFFFFFFFFFFFFFFFFFFFFFFFFFFFFFFFFFFFFFFFFFFFFF20
:2020E000FFFFFFFFFFFFFFFFFFFFFFFFFFFFFFFFFFFFFFFFFFFFFFFFFFFFFFFFFFFFFFFF00
:20210000FFFFFFFFFFFFFFFFFFFFFFFFFFFFFFFFFFFFFFFFFFFFFFFFFFFFFFFFFFFFFFFFDF
:207800000C94343C0C94513C0C94513C0C94513C0C94513C0C94513C0C94513C0C94513C1D
:207820000C94513C0C94513C0C94513C0C94513C0C94513C0C94513C0C94513C0C94513CE0
:207840000C94513C0C94513C0C94513C0C94513C0C94513C0C94513C0C94513C0C94513CC0
:207860000C94513C0C94513C11241FBECFEFD8E0DEBFCDBF11E0A0E0B1E0ECE9FFE702C07E
:2078800005900D92A230B107D9F712E0A2E0B1E001C01D92AD30B107E1F70E942D3D0C94CC
:2078A000CC3F0C94003C982F9595959595959595905D8F708A307CF0282F295A8091C000B5
:2078C00085FFFCCF9093C6008091C00085FFFCCF2093C6000895282F205DF0CF982F8091CF
:2078E000C00085FFFCCF9093C6000895EF92FF920F931F93EE24FF2487018091C00087FD7B
:2079000017C00894E11CF11C011D111D81E4E81682E4F8068FE0080780E0180770F3E09106
:207920000401F091050109958091C00087FFE9CF8091C6001F910F91FF90EF9008950E949A
:20794000763C982F8091C00085FFFCCF9093C60091362CF490330CF09053892F08959755DB
:20796000892F08951F930E949F3C182F0E949F3C1295107F810F1F9108951F93182F882308
:2079800021F00E94763C1150E1F71F9108951F93182F0E94763C803249F0809103018F5FC1
:2079A000809303018530C1F01F9108958091C00085FFFCCF84E18093C6008091C00085FF4A
:2079C000FCCF1093C6008091C00085FFFCCF80E18093C6001F910895E0910401F0910501CF
:2079E00009951F9108950E94763C803241F0809103018F5F80930301853081F00895809177
:207A0000C00085FFFCCF84E18093C6008091C00085FFFCCF80E18093C6000895E0910401AC
:207A2000F09105010995089540E951E08823A1F02D9A28EE33E0FA013197F1F72150304072
:207A4000D1F72D9828EE33E0FA013197F1F721503040D1F7815061F708953F924F925F92B3
:207A60006F927F928F929F92AF92BF92CF92DF92EF92FF920F931F93CF93DF93000080E1A3
:207A80008093C4001092C50088E18093C10086E08093C2005098589A259A81E00E94143D43
:207AA00024E1F22E9EE1E92E85E9D82E0FE0C02E10E1B12EAA24A394B1E49B2EA6E58A2E44
:207AC000F2E57F2EE0E26E2E79E4572E63E5462E50E5352E0E94763C8033B1F18133B9F187
:207AE000803409F46FC0813409F476C0823409F485C0853409F488C0803531F1823521F128
:207B0000813511F1853509F485C0863509F48DC0843609F496C0843709F403C1853709F46A
:207B200072C1863709F466C0809103018F5F80930301853079F6E0910401F0910501099559
:207B40000E94763C803351F60E94F33CC3CF0E94763C803249F78091C00085FFFCCFF0928C
:207B6000C6008091C00085FFFCCF9092C6008091C00085FFFCCF8092C6008091C00085FFEA
:207B8000FCCF7092C6008091C00085FFFCCF6092C6008091C00085FFFCCF5092C6008091A1
:207BA000C00085FFFCCF4092C6008091C00085FFFCCF3092C6008091C00085FFFCCFB09214
:207BC000C60088CF0E94763C863808F4BDCF0E94763C0E94F33C7ECF0E94763C803809F473
:207BE0009CC0813809F40BC1823809F43CC1883909F48FC080E00E94C73C6CCF84E10E949F
:207C0000BD3C0E94F33C66CF85E00E94BD3C0E94F33C60CF0E94763C809306010E94763CA3
:207C2000809307010E94F33C55CF0E94763C803309F41DC183E00E94BD3C80E00E94C73C4F
:207C400049CF0E94763C809309020E94763C8093080280910C028E7F80930C020E94763C88
:207C6000853409F415C18091080290910902892B89F000E010E00E94763CF801E85FFE4F53
:207C800080830F5F1F4F80910802909109020817190788F30E94763C803209F045CF8091E0
:207CA0000C0280FF01C16091060170910701660F771F7093070160930601A0910802B091E8
:207CC00009021097C9F0E8E0F1E09B01AD014E0F5F1FF999FECF32BD21BD819180BDFA9A6C
:207CE000F99A2F5F3F4FE417F50799F76A0F7B1F70930701609306018091C00085FFFCCF16
:207D0000F092C6008091C00085FFFCCFB092C600E1CE83E00E94C73CDDCE82E00E94C73C8A
:207D2000D9CE0E94763C809309020E94763C809308028091060190910701880F991F909306
:207D40000701809306010E94763C853409F4A6C080910C028E7F80930C020E94763C80323E
:207D600009F0B8CE8091C00085FFFCCFF092C600609108027091090261157105B9F140E05F
:207D800050E080910C02A82FA170B82FB27011C0BB2309F45CC0E0910601F0910701319613
:207DA000F0930701E09306014F5F5F4F46175707E8F4AA2369F3F999FECF209106013091CA
:207DC000070132BD21BDF89A90B58091C00085FFFCCF9093C6002F5F3F4F30930701209354
:207DE00006014F5F5F4F4617570718F38091C00085FDE5CE8091C00085FFF8CFE0CE81E029
:207E00000E94C73C67CE0E94763C803209F08CCE8091C00085FFFCCFF092C6008091C000F6
:207E200085FFFCCFE092C6008091C00085FFFCCFD092C6008091C00085FFFCCFC092C6003B
:207E40008091C00085FFFCCFB092C60043CEE0910601F091070194918091C00085FFFCCFA3
:207E60009093C6009CCF80E10E94C73C33CE0E94763C0E94763C182F0E94763C112309F433
:207E800083C0113009F484C08FE00E94C73C22CE80910C02816080930C02E5CE80910C0226
:207EA000816080930C0259CF809107018823880F880B8A2180930B0280910601909107019E
:207EC000880F991F90930701809306018091080280FF09C0809108029091090201969093AA
:207EE000090280930802F894F999FECF1127E0910601F0910701C8E0D1E0809108029091A1
:207F00000902103091F40091570001700130D9F303E000935700E895009157000170013067
:207F2000D9F301E100935700E895099019900091570001700130D9F301E000935700E8954C
:207F40001395103498F011270091570001700130D9F305E000935700E8950091570001707A
:207F60000130D9F301E100935700E8953296029709F0C7CF103011F00296E5CF11248091F8
:1E7F8000C00085FFB9CEBCCE8EE10E94C73CA2CD85E90E94C73C9ECDF894FFCF8000B3
:00000001FF
